:020000040800F2
:104000000050002061410008D3A80008DBA8000888
:10401000D9A80008D7A80008D5A80008000000000B
:10402000000000000000000000000000719E000879
:10403000D1A8000800000000219E00089DA80008EB
:10404000A9410008A9410008A9410008A9410008A8
:10405000A9410008A9410008A9410008A941000898
:10406000A9410008A9410008A941000891A8000839
:10407000A9410008A9410008A9410008A941000878
:10408000ED9E0008E19E0008EDA60008A941000889
:10409000A9410008A9410008A9410008A941000858
:1040A000A9410008E1A60008A9410008A9410008AB
:1040B000C9A60008D5A60008A941000829A0000843
:1040C000F99E0008A9410008A9410008A94100087B
:1040D000A9410008A9410008A9410008A941000818
:1040E000A9410008A9410008A941000800000000FA
:1040F00000000000000000000000000000000000C0
:0C41000000000000000000005FF8E0F18B
:1041100010B5054C237833B9044B13B10448AFF301
:1041200000800123237010BD9001002000000000DA
:1041300050A9000808B5034B1BB103490348AFF36E
:10414000008008BD000000009401002050A9000874
:10415000034613F8012B002AFBD1181A01387047C7
:10416000002103E00B4B5B58435004310A480B4BD2
:1041700042189A42F6D30A4A02E00023136004323E
:10418000084B9A42F9D305F085FE06F0A7FB04F030
:1041900099FEFEE7ACC3000800000020900100205B
:1041A000900100200C150020FEE70000134B10B515
:1041B000DB68C3F30223C3F107041A1D042C28BFD4
:1041C0000424062A88BFDA1E4FF0FF3398BF00226E
:1041D000A34021EA0303002803FA02F3ACBF00F175
:1041E0006040074A4FEA0313DBB2B5BF00F00F008F
:1041F00000F56140135480F8003310BD00ED00E07D
:1042000014ED00E0036800201A6A22F001021A622D
:104210001A6A42F001021A62054A934202BF5A6CBE
:1042200042F400425A641A6842F001021A60704770
:10423000002C014090F83C300246012B4FF0020068
:1042400014D0136882F83D005968002021F07001F5
:10425000596059685960996821F08001996099689E
:104260009960012382F83C0082F83D3070470000DD
:1042700015490B681A6A22F001021A621A6A1A6258
:10428000124A93420DD141F21112186A104208D11C
:1042900040F24442186A104202BF5A6C22F40042B3
:1042A0005A6441F21112186A104208D140F2444295
:1042B000186A104202BF1A6822F001021A60012334
:1042C000002081F83D30704794130020002C0140FD
:1042D000214B30B519464CF25035204A1468D86845
:1042E000C00733D4DA68920644BF2022DA60CB6874
:1042F000DD0606D4CB69DC0703D4C86810F00400DF
:1043000023D0154AD36813F0100305D01449CB69A4
:1043100043F00203CB611023D268500706D5104941
:1043200043F00403CA6942F00102CA610A4AD16932
:10433000C90708D50A48C16941F00401C161D169C2
:1043400021F00101D1610120D36030BD1068001B54
:10435000A842C4D90320F8E700200240A01400209E
:10436000E01300200A4B1B68013308D04FF05003C4
:1043700083F31188BFF36F8FBFF34F8FFEE74FF0CA
:10438000500383F31188BFF36F8FBFF34F8FFEE7A6
:104390008C01002048F2E8035843C30B64205843C3
:1043A00040F23D13B0FBF3F0044A138A9BB2834200
:1043B0009DBF138A9BB2C01A002070477C14002056
:1043C000F0B55442A0421E46059D134635DD6028D7
:1043D00033DC002800EB0207B6BF44420024E4B2FD
:1043E000602FC4BFC0F16002D2B219BB13492718B5
:1043F000096805EB040C0F4421468A4213D8102E9D
:104400001BD1102E18BF00230D49234409682044F6
:104410002B440844A24210D913F8011B013400F8C0
:10442000011BE4B2F6E71CF801EB013107F801EBE0
:10443000C9B2E2E70829E4D0E1E7F0BD9810002016
:104440009C10002001280849084A094B06D1094858
:1044500008600821117006221A707047064808602B
:10446000102111700C22F7E7B80F0020B40F0020C4
:10447000A610002010BD0008E8B10008012873B59F
:1044800009D1134BB3F900203AB912490A80082226
:104490001A8002B070BD0028FBD00F4B811E1C7823
:1044A0000E4B0F481B780068DA08624389B201FBA3
:1044B0000201084D0091B5F90060054922463046D9
:1044C00091F900103444FFF77BFF2C80E1E700BF37
:1044D000A4100020A2100020A6100020B40F00207D
:1044E000B80F002008B5094A094B02301A601022A3
:1044F000084BC0B21A700C22074B1A70FFF7BEFFB0
:10450000BDE808400020FFF79DBF00BF5CC1000868
:10451000B80F0020B40F0020A6100020F8B51E4BE5
:1045200005460E201C78FFF7DDFF1F20B5FBF0F0DD
:104530001A4BC0F10A0010F0F80F1968C5B2C0F3A9
:10454000C4060BD0F32C8CBF01230D23204600277B
:104550002344DBB2421CD2B2934219D16022F32C25
:1045600002FB06F64FF0FF038CBF01220D2205F07F
:104570000705AB402244D2B263F0FF03601CC0B217
:10458000904208D034440D5D1D400D550446F5E7BA
:104590000F541046DEE7F8BDA2100020981000204E
:1045A00010B5441E14F8010F10B1FFF767FFF9E7CB
:1045B00010BD002313B504290093ADF804308DF825
:1045C000063030D90A23B0FBF3F403FB14000230A9
:1045D0008DF80500B4FBF3F003FB104302338DF8B4
:1045E000043080B20A23B0FBF3F403FB1400023062
:1045F0008DF80300A0B20A23B0FBF3F403FB140010
:1046000002308DF80200A0B20A23B0FBF3F403FBE2
:10461000140002308DF80100A0B209E06846FFF7EF
:10462000BFFF02B010BDDDD00329E4D00129EBD1DA
:104630000A24B0FBF4F304FB130002308DF80000F1
:10464000002AEBD06A4600230C2001399942E5DDAF
:104650001478022CE2D102F8010B0133F6E70000D6
:104660001FB500201A4B1B68DA6BADF800201A6CDE
:10467000ADF802205A6C9B6CADF80420ADF8063002
:10468000144B1B68DA6BADF808201A6CADF80A20E1
:104690005A6C9B6CADF80C20ADF80E306A460346A0
:1046A00032F8021B01330844082B80B2F8D10A4AC1
:1046B000137D116932F8134022F81300091B0133EE
:1046C000014403F007031161137504B010BD00BF6E
:1046D00088110020B811002060140020037F082BEF
:1046E00001D1FFF7C5BD704770B5224A9368926843
:1046F00083F4007312F0400F14BF00220222C3F3B0
:10470000402342EA030013431FBF1B4B1A681B4B95
:104710001A601B4A137883420ED160B1164B194AB6
:104720001B6812689B1A282B1FD901281FD002284A
:1047300014BF0020082070BD0F4D124C20B1032B78
:1047400000D11846002309E029682668891B27291B
:1047500009D8012B02D0022B18BF102310702A6831
:1047600018462260E7E70346F8E70020E3E7042065
:10477000E1E700BF0008014004150020D413002029
:10478000F8100020FC10002037B500250446012059
:10479000FFF758FE0A4B1D800A4B1D800A4B53F849
:1047A0002400FFF7FDFE102308481A4600EB4414CE
:1047B000294650200094FFF703FE03B030BD00BF30
:1047C000A2100020A410002020B100081DC3000882
:1047D0000320FFF7D9BF0220FFF7D6BF0120FFF764
:1047E000D3BF0020FFF7D0BF05490B7A0A7AC3F385
:1047F000400383F0010363F341020A72704700BF74
:104800007C1400200A4B9A7999799209013262F35B
:104810008711997103219A799209B2FBF1F101EBA9
:104820004101521A997962F387119971704700BF5B
:104830007C1400200D4B5A7A6AB140F25231DA8969
:10484000143292B2DA81DA8992B28A4202D94FF4F2
:10485000F072DA817047DA890A3292B2DA81DA8943
:1048600092B2B2F5E17FF5D9FA22F2E77C1400208A
:1048700005490B7A0A7A03F0010383F0010363F31D
:1048800000020A72704700BF7C140020054B9A7A20
:1048900012F0010F9A7A0CBF42F001026FF300028E
:1048A0009A7270477C140020044A137D402B8FBFFE
:1048B0000523137D0533DBB2137570477C1400208C
:1048C000034AD37CB3FA83F35B09D374704700BF08
:1048D0007C14002005490B7A0A7AC3F3800383F025
:1048E000010363F382020A72704700BF7C14002048
:1048F00005490B7A0A7AC3F3C00383F0010363F31B
:10490000C3020A72704700BF7C1400200A200A4BC1
:104910009A799979C2F38302013262F38501997120
:104920009A79C2F38302B2FBF0F100FB11219A796C
:1049300061F385029A7170477C140020324B5A7AD9
:10494000B2FA82F252095A725A7A002A41D00520EC
:10495000DA8992B202EBC201A031B1FBF0F189B267
:10496000D981198889B201EBC101A031B1FBF0F105
:1049700089B219805A8892B202EBC202A032B2FB0D
:10498000F0F20A2192B25A80DA8992B2B2FBF1F2C5
:10499000DA81DA8992B202EB8202520092B2DA81B3
:1049A0001A8892B2B2FBF1F21A801A8892B202EB24
:1049B0008202520092B21A805A8892B2B2FBF1F28D
:1049C0005A805A8892B202EB8202520092B25A8006
:1049D00070470920DA8992B2203A02EB820292FBF8
:1049E000F0F189B2D981198889B2203901EB8101AE
:1049F00091FBF0F189B219805A8892B2203A02EB09
:104A0000820292FBF0F2BCE77C140020084BDA79BA
:104A10000132D2B2DA71DA793C2A84BF0022DA712B
:104A2000044A1278032A04BF0022DA71704700BFDB
:104A30007C140020EC080020084B1A790132D2B215
:104A40001A711A790F2A84BF00221A71044A127847
:104A5000032A04BF00221A71704700BF7C14002093
:104A6000EC0800200C4B5A7A5AB15A88143292B290
:104A70005A805A8892B2B2F5117F01D978225A80B1
:104A800070475A880A3292B25A805A8892B2B2F566
:104A9000967FF5D93222F2E77C14002005220749DF
:104AA0004B790133B3FBF2F202EB82029B1ADBB2C9
:104AB0004B714B790BB10023CB7470477C140020F1
:104AC000002814BF10201120FFF70CBD054B1A78E9
:104AD000054B42431A80054B054A1B784B43138014
:104AE000704700BFA6100020A2100020B40F0020C5
:104AF000A410002070B5054601200E46FFF7A2FC69
:104B000000210D4C0846FFF7E1FF54F83500FFF790
:104B100047FD04EBC50401210020FFF7D7FF6068C3
:104B2000FFF73EFD0020FFF78DFC30B20021BDE80D
:104B30007040FFF7CBBF00BF30B1000805210E2049
:104B4000FFF7D8BF05210C20FFF7D4BF07210D20A8
:104B5000FFF7D0BF08B50B200721FFF7CBFF044BB1
:104B6000187ABDE80840C0F34000FFF7A9BF00BFB6
:104B70007C14002008B507210A20FFF7BBFF084B73
:104B80009B799B09012B06D0022B06D00548BDE876
:104B90000840FFF705BD0448F9E70448F7E700BF00
:104BA0007C140020BCA90008BEA90008C0A9000808
:104BB00008B505210920FFF79DFF044B0122D88984
:104BC0000321BDE8084080B2FFF7F3BC7C1400204D
:104BD00008B508200721FFF78DFF044B187ABDE8C0
:104BE000084000F00100FFF76BBF00BF7C140020FD
:104BF000072108B50846FFF77DFF084B9B7903F0B6
:104C00000303012B06D0022B06D00548BDE808405F
:104C1000FFF7C6BC0348F9E70348F7E77C14002018
:104C2000C2A90008C4A90008C6A9000808B5102038
:104C30000721FFF75FFF064B06489B7A13F0010F31
:104C4000054B08BF1846BDE80840FFF7A9BC00BFE8
:104C50007C140020BCA90008C0A9000808B50521E3
:104C60001620FFF747FF054B0122187D0221FFF7B1
:104C7000A0FCBDE808400248FFF792BC7C1400206D
:104C8000C8A9000808B515200721FFF733FF044B1A
:104C9000D87CBDE80840003818BF0120FFF710BFDE
:104CA0007C14002008B506200721FFF723FF044BE2
:104CB000187ABDE80840C0F38000FFF701BF00BFCD
:104CC0007C14002008B50F200721FFF713FF044BC9
:104CD000187ABDE80840C0F3C000FFF7F1BE00BF7E
:104CE0007C14002008B507210420FFF703FF054BC3
:104CF000002298790121BDE80840C0F38300FFF746
:104D000058BC00BF7C14002008B505200721FFF720
:104D1000F1FE064B064A587A064B002814BF10468F
:104D20001846BDE80840FFF73BBC00BF7C140020DC
:104D3000BCA90008D1A9000808B505210320FFF788
:104D4000D9FE074BDA7922B90648BDE80840FFF7DB
:104D500027BCD87901220221FFF72BFC0248F4E797
:104D60007C140020CAA90008CEA9000808B50521B6
:104D70000220FFF7BFFE0E4B1A7922B90D48BDE89D
:104D80000840FFF70DBC1A791879052A08D80122C6
:104D900000EB800090400221FFF70BFC0648EEE795
:104DA000053880B201220221FFF703FC0348E6E741
:104DB0007C140020CAA90008C0A90008CEA90008D8
:104DC00008B505210120FFF795FE044B0122588804
:104DD0000321BDE8084080B2FFF7EBBB7C14002044
:104DE00008B506210020FFF785FE084B5A7952B11D
:104DF0000122587911460230FFF7DBFB0448BDE879
:104E00000840FFF7CDBB0348F9E700BF7C14002042
:104E1000C0A90008D0A900084FF0500383F31188FF
:104E2000BFF36F8FBFF34F8FFEE70000054B1B688A
:104E300033B1054B1B68002B0CBF022000207047CC
:104E40000120704700150020AC140020064A1368AA
:104E50001968064B19B94FF0FF321A607047126893
:104E6000D268D2685268F8E708140020E4140020E1
:104E700008B9064B1868026B0020135CA52B02D002
:104E8000C0F38F0070470130F7E700BF0414002023
:104E90004FF080554AF6AA220648074C0749036896
:104EA000012B04D92560BFF34F8FBFF36F8F0B68C1
:104EB0001A60F4E71014002004ED00E0081300204D
:104EC00008B5EFF305830F2B07D90D4A9B5C0D4AFC
:104ED00012789A4201D9FFF79FFF0B4B0B4A1B68D0
:104EE000126803F4E063934208D94FF0500383F350
:104EF0001188BFF36F8FBFF34F8FFEE708BD00BF70
:104F0000F0E300E0981400200CED00E09C14002079
:104F1000084A136843B94FF0500383F31188BFF375
:104F20006F8FBFF34F8FFEE7013B13600BB983F325
:104F3000118870478C01002008B54FF0500383F3AF
:104F40001188BFF36F8FBFF34F8F074A1368013388
:104F5000012B136006D1054B1B6813F0FF0F01D026
:104F6000FFF75AFF08BD00BF8C01002004ED00E0F0
:104F7000F8B5FFF7E1FF0D4C0D4A05681668236888
:104F80009D42456801D0B5420ED90B68771B9F4200
:104F90000AD29B1B2B440B60236803601368436099
:104FA0000020FFF7B5FFF8BD0120FAE7E814002064
:104FB0000415002006480068006880F3088862B67F
:104FC00061B6BFF34F8FBFF36F8F00DF00BF0000EC
:104FD00008ED00E00369D0E901128A605160596868
:104FE000814208BF5A6000220261186801381860C7
:104FF000704730B50C68631C0AD103695A684A606F
:1050000091608B605960036808610133036030BDB3
:1050100000F10802134652681568A542FAD9EDE777
:1050200070B5154B154E1C68054630680430FFF707
:10503000D1FF334640B931681148CE6A0121026878
:10504000B14022EA010202601A686419546007D371
:10505000BDE870400B4A106819680431FFF7C9BFFA
:10506000094A106819680431FFF7C3FF074B1A6833
:10507000944238BF1C6070BD041500200414002049
:10508000B41400200C14002008140020E4140020A4
:1050900043689A684B608A609A68516099600368B7
:1050A000086101330360704738B5C368DC680CB928
:1050B000FFF7B2FE04F118052846FFF78BFF114BEE
:1050C0001B68E3B9251D2846FFF784FF01230E491D
:1050D000E26A08689340034314200B6029460B4B97
:1050E00000FB0230FFF7D4FF094BE26A1B68DB6A62
:1050F0009A4285BF0120074B0020186038BD294621
:105100000548EFE7AC140020B41400201014002070
:105110000414002008150020EC140020202210B5F3
:10512000214B1B6883F83D20204B1868002835D0A0
:10513000036C43B14FF0500383F31188BFF36F8FBB
:10514000BFF34F8FFEE7036853B9436843B14FF095
:10515000500383F31188BFF36F8FBFF34F8FFEE7C8
:10516000FFF7AEFEEFF311844FF0500383F3118885
:10517000BFF36F8FBFF34F8F826BC36B9A420BD21B
:1051800090F845100132FF294BB2826307D1436A80
:1051900013B12430FFF788FF84F3118810BD013369
:1051A0005BB280F84530F7E7F4100020A81000202B
:1051B0002DE9F0410446FFF7BFFE4FF0010890F8DB
:1051C00045501B4F6DB200F12406002D17DCFF2364
:1051D0004FF0010884F84530FFF79AFEFFF7ACFE68
:1051E00094F84450124F6DB204F11006002D12DCF9
:1051F000FF2384F84430BDE8F041FFF789BE636ABD
:10520000002BE4D03046FFF74FFF08B1C7F800800D
:10521000013D6DB2D9E72369002BE9D03046FFF795
:1052200043FF08B1C7F80080013D6DB2DEE700BF63
:10523000081500202DE9F84F3C4B1B68002B6ED160
:105240003B4B1D6801351D60BDB93A4B1A681268A9
:1052500042B14FF0500383F31188BFF36F8FBFF358
:105260004F8FFEE7344A1968106818601160334A9E
:10527000136801331360FFF7E9FD314E00243368F2
:10528000304FAB4210D9304B1B68DA6A14235343BA
:10529000FB58022B28BF01242C4B1B68002B0CBF92
:1052A00020460120BDE8F88FDFF888A0DFF8A49041
:1052B000DAF800301B681BB94FF0FF333360E2E7C8
:1052C000DAF80030DB68D3F80CB0DBF80420954244
:1052D00001D23260D7E70BF104084046FFF77AFEAF
:1052E000DBF828201AB10BF11800FFF773FE01223A
:1052F000DBF82C00D9F8003082401A43C9F80020AE
:105300001422414602FB0070FFF7C2FE0E4BDBF891
:105310002C201968CB6A9A4228BF0124C8E70C4A9E
:105320000024136801331360B6E700BFAC140020FB
:1053300004150020081400200C140020E81400209C
:10534000E41400201014002004140020081500208C
:10535000A8140020B414002031492DE9F8430B684B
:1053600043B94FF0500383F31188BFF36F8FBFF33E
:105370004F8FFEE7FFF7E0FD0B68013B0B600C6809
:1053800024B10020FFF7C4FDBDE8F883254B1B685E
:10539000002BF6D0244D254EDFF8A4801FE0EB68EB
:1053A0000127DC6804F1040904F11800FFF712FE7C
:1053B0004846FFF70FFE1420E26A316807FA02F34D
:1053C0000B4300FB028049463360FFF761FE184B38
:1053D000E26A1B68DB6A9A4201D3164B1F602B6896
:1053E000002BDCD10CB1FFF731FD134D2C6844B11B
:1053F0000127104EFFF71EFF00B13760013CF9D1C5
:105400002C600C4B1B68002BBBD04FF080520B4B19
:105410001A60BFF34F8FBFF36F8F0120B2E700BF59
:10542000AC140020A4140020EC140020B4140020BC
:105430000414002008150020A814002004ED00E04A
:105440001014002008B540B94FF080520A4B1A6082
:10545000BFF34F8FBFF36F8F08BD084B1A680AB1B7
:10546000FFF7DAFC1A6801321A60FFF7D9FDFFF77F
:1054700073FF0028E8D0EFE704ED00E0AC14002053
:105480000520FFF7DFBF000070B50D4D2E68064404
:10549000FFF72AF9044654B1FFF726F90446FFF74F
:1054A000EFFF2B689E42F6D270BD002CFCD1FFF7B7
:1054B0001BF90446FFF7E4FF2B689E42F5D2F3E7A1
:1054C000041500201A4A036890420AD0B0F1804FB8
:1054D00007D0A2F59432904203D002F58062904248
:1054E00015D14A6823F070031343114A90420AD041
:1054F000B0F1804F07D0A2F59432904203D002F56C
:105500008062904203D1CA6823F4407313434A690E
:1055100023F08003134303608B68C3620B688362CC
:10552000034B984204BF0B69036301234361704737
:10553000002C014013B590F83D30044603F0FF0203
:1055400000687BB9144B84F83C20984216D103F5CF
:105550000333DA6942F00202DA61DB6903F0020325
:105560000093009B0223211D84F83D30FFF7AAFF22
:105570000123002084F83D3002B010BDB0F1804F0F
:10558000F0D1064BDA6942F00102DA61DB6903F01F
:1055900001030193019BE5E7000400400010024075
:1055A00013B519200021FEF701FE4FF000721C4BCD
:1055B0001C4C1A601C4B20469A6942F400629A61A6
:1055C0009A6902F400620192019A5A685A685A680C
:1055D0005A68164A12685B68154AC3F3C223D25C44
:1055E000144B1B68D340144AB3FBF2F3134A013B3C
:1055F0002260636040F2E7320023E2602361A3602F
:10560000FFF798FF50B92368DA6842F00102DA60C8
:105610001A6842F001021A6002B010BD0120FBE7D7
:1056200000E100E0141300200010024000200240BE
:10563000EBB000083400002040420F00002C014075
:1056400010B5036804461A6991070ED5DA68920707
:105650000BD56FF002021A61012202779B699B074A
:1056600001D1FFF73BF80023237723681A6950071D
:1056700010D5DA6851070DD56FF004021A610222C5
:1056800022779B6913F4407F02D12046FFF726F86A
:105690000023237723681A6912070FD5DA681007E9
:1056A0000CD56FF008021A6104222277DB69990792
:1056B00002D12046FFF712F80023237723681A69E6
:1056C000D20610D5DA68D0060DD56FF010021A6137
:1056D00008222277DB6913F4407F02D12046FEF7CF
:1056E000FDFF0023237723681A69D1071CD5DA68E8
:1056F000D20719D56FF001021A612368B3F1804F08
:1057000034D11E4A1E4913880968013B9BB213809D
:105710001C4B1B78DBB20B640B6C23B313889BB25E
:105720000BB31948FEF76EFD23681A69100605D5FC
:10573000DA68110644BF6FF080021A6123681A69A3
:10574000520605D5DA68500644BF6FF040021A6170
:1057500023681A69910605D5DA68920644BF6FF08E
:1057600020021A6110BDFEF783FDDDE7074A934270
:1057700001BF074A136801331360D5E7500B0020BF
:10578000541300200014002094130020002C01402A
:10579000A014002010B590F83D30044603F0FF023D
:1057A0000BB980F83C200223206884F83D30211D8D
:1057B000FFF788FE0123002084F83D3010BD000073
:1057C00070B50568124E6B6913F0400301D00020DC
:1057D0000EE06C6914F010040BD06FF010026A61D7
:1057E0002022036480F83C30036380F83D200120D0
:1057F00070BD33689B1A8B42E5D9036C80F83C403E
:1058000043F020030364202380F83D300320EFE7BA
:10581000A014002070B50568134E6B6913F00403E3
:1058200001D000201FE06C6914F480640FD133684C
:105830009B1A8B42F1D9036C80F83C4043F0200363
:1058400003642023046380F83D3003200BE06FF4F1
:1058500080626A61042202642022036380F83C3083
:1058600080F83D20012070BDA014002070B50568AF
:10587000134E6B6913F0800301D000201FE06C69A8
:1058800014F480640FD133689B1A8B42F1D9036CF6
:1058900080F83C4043F0200303642023046380F835
:1058A0003D3003200BE06FF480626A6104220264E1
:1058B0002022036380F83C3080F83D20012070BD39
:1058C000A0140020F0B504460568144F686921EA69
:1058D000000080B2A0B1686910F4806011D02B681C
:1058E000202243F400732B606FF480636B61042308
:1058F000236400230120236384F83C3084F83D2096
:10590000F0BD3E68F61A9642E0D92023206384F861
:105910003C0084F83D300320F2E700BFA0140020D3
:10592000F0B5DFF844C006680F0C012F0CBF746996
:10593000B46921EA0404A4B2B4FA84F46409A2426A
:1059400001D000200FE0DCF80040059D641B9C4264
:10595000EBD900232022036380F83C3080F83D20FF
:1059600080F83E300320F0BDA0140020436A1A687E
:10597000116821F4806111600021586B59854163E1
:10598000986B416393F83D0060284FF0200083F846
:105990003D0083F83E1006D11964136823F001031B
:1059A0001360FFF7BBBB136823F00103136000BE55
:1059B000F7E7436A19680A6822F480620A600022E5
:1059C00020215A8583F83D1083F83E201A6C42F05E
:1059D00010021A6400BEFFF7A1BB426A92F83D3084
:1059E00092F83E10212BD8B2C9B2136803D02228F6
:1059F0000CD120290AD1596821F400615960002195
:105A000051855A6842F440725A607047196821F40F
:105A100080611960196841F400711960596821F4B6
:105A200080515960596821F4006159600023538501
:105A3000136C13B100BEFFF771BB202182F83D103B
:105A400092F83E1082F83E30F5E700002DE9F74F5E
:105A500000221646644BDFF8A0C1DFF8A0E14FF04A
:105A600001080D6808FA06F808EA050438EA050591
:105A70007CD14D68032D07D8013D022D00F28E80A8
:105A8000DFE805F09CA1A700122D00F09F8074D8DC
:105A9000112D00F09580FF2C98BF82464FF00F0922
:105AA00088BF00F1040A4FEA8605DAF8008088BF53
:105AB000203D09FA05FB28EA0B0802FA05F548EA39
:105AC0000505CAF80050D1F804A01AF0805F4DD047
:105AD000464F26F00308BD6908F1804845F00105EE
:105AE000BD61BD6908F5803805F00105019506F036
:105AF000030B019D4FEA8B0BD8F8085009FA0BF9FC
:105B000025EA09093A4DA84267D005F58065A84203
:105B100065D005F58065A84263D005F58065A8428B
:105B20000CBF0325042505FA0BF545EA0905C8F85D
:105B300008501D681AF4803F14BF2543A5431D601B
:105B40005D681AF4003F14BF2543A5435D609D685E
:105B50001AF4801F14BF2543A5439D60DD681AF425
:105B6000001F14BF2C4325EA0404DC600136102E0C
:105B70007FF475AF03B0BDE8F08F1E4FBD420DD06E
:105B800018D8DFF87C904D4508D009F570294D45AF
:105B900004D0A9F580194D457FF47DAF8A68D2B154
:105BA000012A08BFC0F810804FF0080218BFC0F8E3
:105BB000148070E76545F1D07545EDE7CA686AE77E
:105BC000CA68043267E7CA68083264E7CA680C32F8
:105BD00061E700225FE704225DE70025A3E70125D6
:105BE000A1E702259FE700BF00040140001002402A
:105BF00000080140000022100000311000003210A7
:105C0000000012102DE9F041044686B018B90120B9
:105C100006B0BDE8F08190F83D306D4E03F0FF0511
:105C2000002B60D1C02212230127CDE902230223D9
:105C300080F83C5002A96748CDE90473FFF706FFDE
:105C40004FF0800E1821F369634843F40013F361A9
:105C5000F369624A03F400130193019B604BDFF880
:105C6000A8C1C3E903E5C3E90005C3E90555C3E9D4
:105C70000F219D60DD6101684FF0100801EA0C0101
:105C800041EA0E0101604FF480709D631884A363A4
:105C90005C62544B5449C3E9025E4FF4805EC3F822
:105CA0001CE04FF0140EC3E90018C3E90455C3E922
:105CB0000F2E9D610A6802EA0C0242F4845242EA05
:105CC00008020A609D6318840F211F2063635C62D1
:105CD000FEF76CFA4FF00043444D0F2120202B605B
:105CE000FEF764FA6F602423216884F83D300B6866
:105CF0003F4A23F001030B6073683E48C3F302235D
:105D0000D35C3D4A1268DA406368834294BF3B48E3
:105D10003B4882428CBF0020012000287FF477AFEF
:105D2000344E384DB342B2FBF5F588BF4FF4967050
:105D30004D6083BF68434FF47A75B0FBF5F0681C83
:105D400088BF0130B342086202F1FF3223D85B0002
:105D5000B2FBF3F2531C40F6FC72134233D0C3F390
:105D60000B03CB61D4E9073213430B60D4E903235F
:105D700013438B60D4E905321343CB600B680020DA
:105D800043F001030B602023206484F83D3020633E
:105D900084F83E003CE7A06850B903EB4303B2FB34
:105DA000F3F30133C3F30B037BB143F40043D8E7B0
:105DB00019204343B2FBF3F30133C3F30B0323B1C5
:105DC00043F44043CDE70423CBE70123C9E700BFF9
:105DD00000100240000C0140800002400000024020
:105DE0002C120020701200206C00024000E100E044
:105DF000EBB00008A0860100340000207F841E0064
:105E0000FF083D0040420F000FC0FFFFF0B52B4ED2
:105E10001120336885B01A6840251368694623F05D
:105E2000010313600123CDE90103022324480393F6
:105E30000095FFF70BFE8024056169460094FFF78B
:105E400005FE652304614FF480020446A16809063B
:105E50002BD5122201234027CDE9012302238025DF
:105E60006946174803930097FFF7F0FD6946144809
:105E70000095FFF7EBFD2761256133681A68136809
:105E800043F40043136000BF33681A68136823F4B7
:105E90000043136000BF30680268136843F00103D9
:105EA0001360FFF7AFFE05B0F0BD226100BF00BF79
:105EB00000BF00BF013B2561C8D1F4E7F41000200A
:105EC000000C0140064B186910F0800007D0054A0D
:105ED0005A6002F188325A601869C0F3C0107047E6
:105EE000002002402301674570B40425C66B026C94
:105EF0003468036895402542196832D04D0730D583
:105F00001A6896065EBF1A6822F004021A603D4ABB
:105F1000934219D01432934218D01432934217D0BE
:105F20001432934217D01432934217D01432934252
:105F30000CBF4FF480034FF08063334A5360C36A51
:105F4000002B5CD070BC18470423F6E74023F4E72D
:105F50004FF48063F1E74FF48043EEE74FF4802382
:105F6000EBE702259540254235D08D0733D51A68D9
:105F7000940606D41A6822F00A021A60012280F8F8
:105F80002120204A934219D01432934218D014325F
:105F9000934217D01432934217D01432934217D041
:105FA000143293420CBF4FF400134FF00073164AA3
:105FB0005360002380F82030836AC1E70223F6E7AC
:105FC0002023F4E74FF40073F1E74FF40053EEE7BA
:105FD0004FF40033EBE70825954025420FD0090721
:105FE0000DD5196821F00E011960012303FA02F2A0
:105FF000726083634FF480730384036BA0E770BC0B
:10600000704700BF080002400000024008B590F849
:106010002130022B03D004238363012008BD0368D1
:106020001A6822F00E021A601A6822F001021A6041
:10603000174A93421CD0143293421BD0143293421D
:106040001AD0143293421AD0143293421AD0143216
:1060500093420CBF4FF480134FF080730D4A53608E
:106060004FF480730384436B7BB198470020D5E7DE
:106070000123F3E71023F1E74FF48073EEE74FF4C9
:106080008053EBE74FF48033E8E71846C6E700BFDC
:10609000080002400000024010B5444C94F83D2036
:1060A0002368293A012A36D800222263282284F85C
:1060B0003D201A6822F400621A605A6812F40062E5
:1060C00051D05A6822F400625A60606B90F8213017
:1060D000012B374B2ED04363FFF798FF50B1226856
:1060E000136823F0010313602023606B84F83D30B4
:1060F000436B984794F83D30282B0BD1236C5B07FA
:1061000008D52C4B2022E3620023236384F83D2032
:1061100084F83E3010BD94F83D20602A05D05A68BE
:1061200012055CBF202284F83D200022226384F8FF
:106130003E20BEE7A06B4363FFF768FF0028D9D07D
:1061400023685A69500604D51A69636A591C61624A
:106150001A702268136823F0010313602023A06BD8
:1061600084F83D30C4E794F83D10602913D1202114
:1061700084F83D1022645A69510604D51A69636A8D
:10618000591C61621A702268136823F001031360BE
:10619000FEF7C4FFAEE75A69520604D51A69636A6E
:1061A000591C61621A7000BEF2E700BFB4120020F1
:1061B0006D5900080000FFFFF0B590F82040012C59
:1061C00034D0012490F8215080F82040A5424FF0AF
:1061D00000064FF0020427D180F82140046886634E
:1061E000266826F001062660D0E90F67BD4075607D
:1061F00063604368102BC36A0BBFA260A160E160BB
:10620000E2604BB1236843F00E0300202360236853
:1062100043F001032360F0BD236823F004032360EF
:10622000236843F00A03F0E780F820600220F2E7D9
:10623000F7B50246002092F82430D2F808C0012BAE
:10624000019000F0CF80012782F824701368D1E913
:106250000056BCF1000F7AD1BE4272D160469C6BF1
:10626000A40DA40544EAC5349C639C68E40707D4E4
:106270009C68CF6924F4E04424F001043C439C6012
:106280008C69012C0DD1CF69B7F5E04F17BF906A2B
:106290005F6840F02000906212BF204647F480679C
:1062A0005F604F69012F05D1002C70D15C6844F408
:1062B00080545C60092D4FF00707D1F808E005EB2A
:1062C00045046AD9D3F80CC01E3CA7402CEA070746
:1062D0000EFA04F43C43DC60A5F11004012C98BFD5
:1062E0009F68DFF810C19CBF47F400079F60022E33
:1062F000CF685CD0032E60D0012E64D1596901EAC9
:106300000C0139435961012C16D837498B4263D1AE
:106310009968090210D49968102D41F40001996020
:106320000AD1324B32491B68B3FBF1F10A234B43CC
:106330000193019B002B4CD1002382F8243003B041
:10634000F0BD946A384644F0200494628DE71F271C
:10635000D1F810C0A6EB0C0404EB84040F34A74062
:1063600047F44017B4456FEA07070CD3D3F838E079
:106370000CF1FF3C05FA04F444EA0C540EEA07075A
:106380003C439C6371E79C6B27409F636DE7906A79
:1063900040F02000906238468CE7D3F810C0A74048
:1063A0002CEA07070EFA04F427431F6194E7996962
:1063B00001EA0C0139439961A5E7D96901EA0C01A9
:1063C0003943D9619FE7196A01EA0C01394319621F
:1063D00099E7019B013BABE7936A012043F020035F
:1063E0009362A9E70220AAE70024014034000020BC
:1063F00040420F0000F0FFFF436A9A6A42F04002F9
:106400009A62DA6A42F00402DA6270477047436ABD
:106410009A6A12F0500F18D19A6A42F400729A6286
:106420001A68926802F46022B2F5602F10D1DA681F
:1064300072B99A6A22F480729A629A6AD20407D474
:106440009A6A42F001029A6270471B6A1B6B1847F6
:1064500070470000036810B59A68D40701D4002083
:1064600010BD9A6822F001029A60094A146899687E
:10647000C907F4D51168091B0229F8D9836A43F0CA
:1064800010038362C36A43F00103C3620120E7E79C
:10649000A0140020F0B5816A044687B000293DD1E0
:1064A00002685F4BC1629A4280F8241003F56C4386
:1064B0009A6940F0888042F400729A614FF48075C6
:1064C00080229B694FF4806603F400730293029B61
:1064D000544B5548C3E903252022C3E905624FF414
:1064E0004052C3E90001DA61504A19649960DA63E5
:1064F000026822F47F5222F0300242F4565242F0F7
:106500002002026099631D8423625C620F211220C5
:10651000FDF74CFE4FF48022454B1A602046FFF7F2
:1065200099FFA36A13F0100375D1002873D1A26AF2
:10653000E569616822F4885222F0020242F0020208
:106540002943A568A262E268B5F5807F41EA42016D
:106550004AD0012D14BF00274FF480776669012EC1
:1065600007D1002A42D1A269013A47EA423646F4ED
:1065700000672268B5F5807F566826F4694646EACA
:106580000706566097682B4E06EA070646EA01069C
:10659000966001D0012D02D12369013B1B05D56A0C
:1065A00025F470052B43D3629268234B1340994224
:1065B00025D10023E362A36A23F0030343F0010320
:1065C000A36207B0F0BD42F480629A619B69012228
:1065D00003F480630193019B0323184802A9CDE9CA
:1065E0000223FFF733FA91E72F46B7E7A26A42F09A
:1065F0002002A262E26A42F00102E262B9E7A36A03
:1066000023F0120343F01003A362E36A43F0010393
:10661000E3620120D5E7A36A43F01003A362F8E721
:1066200000240140E8110020080002400000024060
:1066300000E100E0FDF7E1FFFE0E1FFF000C01404E
:10664000002337B5026801939368DB0702D5002069
:1066500003B030BD9368124943F001039360114BBE
:106660001B68B3FBF1F30193019BABB90E490D68B5
:10667000936813F00103EAD10C68641B022CF7D96C
:10668000826A80F8243042F010028262C26A42F0CC
:106690000102C2620120DBE7019B013BE3E700BF8F
:1066A00040420F0034000020A014002010B590F8E4
:1066B00024300446012B4AD0012380F82430FFF710
:1066C000BFFF00283FD1A36A224A23F4405323F09E
:1066D000010343F48053A3622368934205D1A2F5DA
:1066E0008062526812F4702F25D1A26A22F48012BF
:1066F000A262A26A12F4807208BFE262002284F8E9
:1067000024206FF004021A605A68520512D49A6865
:1067100002F4E042B2F5E04F11D10E4A934205D1A6
:10672000A2F58062526812F4702F08D19A6842F480
:1067300002129A6010BDA26A42F48012D8E79A68E9
:1067400042F40042F5E7002384F82430F2E7022007
:10675000F0E700BF00280140002337B5019390F80F
:1067600024300446012B5FD0012380F82430FFF74A
:1067700071FE0546002839D1A36A2C4823F48853BA
:1067800023F0020343F00203A362294B1A68294B4A
:1067900059685B68C1F3C221415CC3F381330133A3
:1067A00022FA01F15B00B1FBF3F3B2FBF3F252000A
:1067B0000192019BF3B92046FFF742FF23689A68D4
:1067C00042F008029A601C4A10689968090715D4BB
:1067D000996841F0040199601068996849071ED4CE
:1067E000A36A23F0030343F00103A362002384F8A8
:1067F000243011E0019B013B0193DAE71168091A8B
:106800000A29E2D9A36A012523F0120343F01003F9
:10681000A362002384F82430284603B030BD1168F9
:10682000091A0A29D9D9EDE70225F5E7EBB00008E6
:106830003400002000100240A0140020034B01305F
:1068400019681A68521A8242FBD37047A0140020BC
:106850002DE9F84F4AF6AA242D4E2E4D33681C60C0
:106860003523EB60FFF72EFB0A20FFF7E7FF3368C5
:106870001C60294C237E012B17D001232376FDF7C2
:1068800027FD80B9E0612B6943F002032B61234BA4
:106890006B612B6943F040032B61FDF719FD2B69F8
:1068A00023F002032B6100232376FFF70BFB4AF64C
:1068B000AA29DFF86CA0194D164FDFF868803368FD
:1068C000C3F80090237E012B15D00123BAF800B045
:1068D0002376FDF7FDFC60B9E0613B6943F00103FD
:1068E0003B61A5F800B0FDF7F3FC3B6923F0010321
:1068F0003B6100232376023545450AF1020ADED1C9
:10690000044A136943F080031361BDE8F88F00BFA8
:106910000813002000200240E013002000FC0008C3
:106920007C1400201CFC00080023064A02EB4002F5
:10693000184632F823100133202B0844F9D1C0F354
:106940008F007047AC0100202DE9F047194E044636
:1069500037788946DFF8648067B1C2460025012098
:10696000FFF7E2FF0135EDB2202D4AF8040BF6D116
:10697000013F3770B9F1000F0AD00120FFF7D4FFB3
:106980000D4B1A7848F82200013202F01F021A70EB
:10699000002213460949013251F8040BD2B2202AD1
:1069A0000344F8D15B099B00B3FBF4F080B2BDE86F
:1069B000F08700BF400100200011002004110020DA
:1069C00010B50F4B041E988980B203DCFFF7BCFFA3
:1069D000002010BDFFF7B8FF55234043B0FBF3F094
:1069E0004FF48873C0EB0020B0FBF3F0C4EB042439
:1069F000B4FBF0F0FF2828BFFF20C0B2E9E700BFDA
:106A00007C14002010B50121FFF7DAFF0A22114B98
:106A100004461A80104B00211870104B988980B2E0
:106A2000FFF792FF55234043B0FBF3F04FF4887219
:106A3000C0EB0020B0FBF2F06043FF24B0FBF4F0A9
:106A4000E824074B1A685443182202FB0040000A4E
:106A5000186010BD500B0020001400207C14002092
:106A6000B814002010B50E4B5A79BAB15C799889E8
:106A7000002180B2FFF768FFE4B20234E4B2B0FB59
:106A8000F4F0212838BF21202138092828BF092007
:106A90000430C0B2BDE81040FDF724BD0F20F9E777
:106AA0007C14002070B50D4B002198890A2680B215
:106AB000FFF74AFFB0FBF6F4054601220221A0B21F
:106AC000FDF777FD0648FDF76BFD012206FB14502C
:106AD000BDE87040114680B2FDF76BBD7C1400200C
:106AE00086AF000808B50020FFF71EFFA0F59B53F6
:106AF0006420053B584340F2E13390FBF3F080B251
:106B000008BD000010B5114B40F29514186900281B
:106B1000B8BF0730C0F3CF00FDF73CFC4443FFF79C
:106B2000E1FF0A23B0FBF3F305209BB203EBC303A1
:106B3000B3FBF0F34FF47A70B4FBF0F0322200EBC9
:106B4000C000B0FBF2F01844403010BD60140020CB
:106B500010B547F66F60FDF71DFC40F295144443F5
:106B6000FFF7C0FF0A23B0FBF3F042F21073B4FB4F
:106B7000F3F480B22044013810BD000010B590B18C
:106B8000FDF76EFDFDF706FC40F295144443FFF758
:106B9000A9FF0A23B0FBF3F042F21073B4FBF3F445
:106BA00080B2204410BD044B18690028B8BF0730DC
:106BB000C0F3CF00E6E700BF6014002038B5164CE4
:106BC0000546637A03F0FF00B3B1FFF79BFF012294
:106BD000032180B2FDF7EDFCE5B1104B104A1B68B4
:106BE00093420ED00F4A93420BD0637A3BB1002000
:106BF000BDE83840FDF776BCFFF7C0FFE7E70120AE
:106C0000F6E7637A23B10848BDE83840FDF7C8BC11
:106C10000648F9E738BD00BF7C140020B80F0020FB
:106C200010BD00085CC10008BCA90008D1A900087B
:106C3000F0B590F83C300446012B4FF0020037D0FD
:106C4000236884F83D001A6A0E6822F001021A6275
:106C50001A6A5D68986922F0020220F073003043DE
:106C60008E683243134EB3420BD1CE6822F0080235
:106C7000324325F44075D1E905673E4322F0040212
:106C800035435D6098614868096958631A629A697A
:106C9000002042F008029A619A6922F004029A6187
:106CA0009A690A439A61012384F83C0084F83D30D4
:106CB000F0BD00BF002C01402DE9F04399465C4B2C
:106CC00085B01D6890F83D300446202B0F46904655
:106CD0000C9E03D0022005B0BDE8F08319230122E9
:106CE00054490095FEF71CFE0028F3D194F83C307F
:106CF000012BEFD00123206884F83C3003684FF06B
:106D00000111DA0758BF03684FF000025CBF43F07F
:106D100001030360036823F400630360212384F804
:106D20003D30402384F83E30012322646385A3F183
:106D30000113E362638DC4F824902385036843F450
:106D400080730360334620460095FEF7E9FD58B98D
:106D5000236807F0FE071F6132462B46204636495E
:106D6000FEF7B0FD48B1236C236C042B4FF00003F9
:106D700084F83C3035D10120ADE7236803905A698F
:106D8000314603929B692A4603932046039BFEF7F4
:106D90006DFD40B1236C042BE6D12268136843F4E7
:106DA00000731360E0E72368C3F81080238D2A4640
:106DB000314620467BB9FEF72DFD78B9226813686D
:106DC00043F400731360202384F83C0084F83D30C2
:106DD00084F83E007FE7FEF749FD20B1236C042BC9
:106DE0001FD0032077E7616A27684B1C63620B782A
:106DF000228D3B61638D501E013B9BB263857B6995
:106E000080B25B072085D1D50028CFD08B1C636270
:106E10004B78023A3B61638D2285013B9BB26385CF
:106E2000C4E72268136843F400731360A3E700BF4C
:106E3000A014002002001000020001002DE9F04320
:106E40009846A24B89B01E6890F83D300446202B2E
:106E50000D469146119F04D00225284609B0BDE891
:106E6000F083192301229A490096FEF759FD002864
:106E7000F2D194F83C30012BEED00123206884F845
:106E80003C3003680022D90758BF03684FF0011156
:106E90005CBF43F001030360036823F400630360F5
:106EA000222384F83D30402384F83E30BDF8403042
:106EB00022646385874BC4F82480E362638D238555
:106EC000036843F480630360036843F480730360E2
:106ED0003B4620460096FEF723FD18BB23685FFA69
:106EE00085F805F0FE051D613A46334620467A498D
:106EF000FEF7E8FC08B1236C14E0236807905A6998
:106F0000394607929B69324607932046079BFEF756
:106F1000ADFC80B1236C042B04D12268136843F4C8
:106F200000731360236C042B4FF0000384F83C3093
:106F30007CD1012591E7236832462046C3F81090A2
:106F4000FEF794FC02460028E4D1216820460B6835
:106F500043F480730B603B464FF001110096FEF73F
:106F6000DFFC0028DED1226848F0010313612046CF
:106F700033463A465849FEF7A5FC05460028BAD1E3
:106F8000228D23689AB1012A27D11A6822F48062DF
:106F90001A6072B6236805905A6905929A6905923B
:106FA000059A1A6842F400721A6062B609E0069007
:106FB0005A6906929A690692069A1A6842F4007211
:106FC0001A60DFF81881238D1BBB202284F83C3027
:106FD00084F83D2084F83E303FE7022A1A680ED13B
:106FE00042F400621A6072B6236804905A690492EF
:106FF0009A690492049A1A6822F48062D4E742F4EF
:1070000080621A6003905A6903929B690393039B01
:10701000D7E7032B64D8012B0AD1324639462046E4
:10702000FEF7CEFB18B3236C202B82D1032514E787
:10703000022B4FF000023B4641462046009624D1E9
:10704000FEF76EFC0028F1D172B623681A6842F48C
:1070500000721A601A69636A591C61621A70238D82
:10706000013B2385638D013B9BB2638562B6236838
:107070001A69636A591C61621A70238D013B23856A
:10708000638D013B9BB263859DE7FEF749FC024699
:107090000028CBD121680B6823F480630B6072B6A3
:1070A00023681969636A581C60621970238D414610
:1070B000013B2385638D2046013B9BB2638500968F
:1070C0003B46FEF72DFC0028BFD0AFE7A014002000
:1070D000020010000000FFFF020001000400010098
:1070E000324639462046FEF76BFB00289BD12368C9
:1070F0001A69636A591C61621A70238D013B2385EA
:10710000638D013B9BB2638523685A6952077FF503
:107110005AAFADE700263A4D80B50020FFF772FC6C
:10712000384F2A68384BDFF8F890DFF8F8803E6077
:107130001A60FDF701FF2B685B6D7BB901222B689C
:107140004FF4FA6083F85820FDF76AFF4FF0805340
:10715000C9F80030BFF34F8FBFF36F8FFDF7D8FE34
:10716000FDF7EAFE2B68596D09B12B685E652B6847
:1071700083F85860FDF7CCFE00293AD00120FFF7D4
:10718000FDFC82463868B0B1B0F5E17F28BF4FF40E
:10719000E1700446FFF7DCFCA04202D2FFF7D8FC06
:1071A00004461A4BCAF10100204400F30F0418688A
:1071B0002D2303FB040047F66972154B1B69002B56
:1071C000B8BF0733C3F3CF03934288BF0020114BEE
:1071D000DA7C32B10A211A7D4A438242BCBF187D53
:1071E0004843FFF70FFC4AF6AA220B4B1B681A60B4
:1071F0009FE70A23A8F80030084B197099E700BFF1
:107200000414002084110020B00F0020B8140020C6
:10721000601400207C1400200813002000140020BB
:1072200004ED00E0500B00202DE9F0410646DDE9B9
:1072300006040F46984608B9FDF7EEFD44B94FF035
:10724000500383F31188BFF36F8FBFF34F8FFEE7B7
:1072500095002A46A521206303F072FB226B043DB2
:107260002A447B1E22F0070204F13401173713F879
:10727000010F01F8010B187808B1BB42F7D1434662
:10728000032B4FF0000128BF0323C4E91331E3624D
:10729000C3F10403A3614FF08073616584F84B1060
:1072A0006161A1622461646284F8581042F8043C70
:1072B000434B26F0010642F80C3C42F8086C42F8B9
:1072C000201C403A2260FDF737FE3E4A3E4F1368CD
:1072D000DFF81C81013313603D683C4BD4F82CC0AF
:1072E000002D63D13C601268012A39D14FF0FF367E
:1072F00003F10802C3E902625A601A611A4642F8B1
:107300001C5B3349C3E90626C3E9082203F13002B6
:10731000C3E90B26C3E90D2203F14402C3E9102699
:10732000C3E9122201F10802C1E90126C1E90322E1
:10733000284A0D6002F10800C2E90106C2E9030013
:1073400025485D6100F1080EC0E901E69D62DD633C
:107350001560C0E903EE05602048016020490A601D
:1073600020490A6801320A6001221F4902FA0CF220
:107370000868024314200A6000FB0C30211DFDF751
:1073800087FEFDF7C5FDD8F8003063B13B68DA6AC7
:10739000E36A9A4207D24FF08052144B1A60BFF34F
:1073A0004F8FBFF36F8F2046BDE8F081D8F80020E3
:1073B000002AD5D13A68D26A624598BF3C60CFE7CF
:1073C00065430008A41400200414002010140020B9
:1073D000BC140020D0140020EC140020081400205D
:1073E0000C140020B0140020B414002004ED00E0C0
:1073F0000015002037B50446D0E90010A569B4F99E
:107400000830226901956469842B0CBF0023033383
:107410000094FFF709FF03B030BD000010B5244C05
:107420001C220021204603F08BFA9623638006235A
:1074300023714FF4A0731C22238000230221637167
:107440006275227A63F3C3022272227A63F38202A4
:107450002272A27961F301020721A271A27961F37C
:107460008502A27140F2D312A2810A22E271227A2D
:1074700042F0010222724FF4D272E281A27963F3E8
:107480008712A271227A63F3410222726372A27A96
:1074900063F30002A272E3744FF461732382462304
:1074A000A3741E232375BDE81040FFF7D1B900BFB8
:1074B0007C140020C0220021014803F041BA00BF23
:1074C000CD0F00202DE9FF4100230446019340B970
:1074D0004FF0500383F31188BFF36F8FBFF34F8FCB
:1074E000FEE7026C42B14FF0500383F31188BFF303
:1074F0006F8FBFF34F8FFEE7FDF798FC014650B941
:10750000019B4BB14FF0500383F31188BFF36F8F92
:10751000BFF34F8FFEE71146714E724F724DB8E0C8
:107520006568B5B9002500226260626A0136A6630B
:10753000002A63D004F12400FDF7B6FD00285FD0D7
:107540004FF08052684B1A60BFF34F8FBFF36F8FBD
:1075500056E0664B1B689D4208D04FF0500383F302
:107560001188BFF36F8FBFF34F8FFEE72B6D43B9C9
:107570004FF0500383F31188BFF36F8FBFF34F8F2A
:10758000FEE7E96AEA6C013B91422B65CAD0002B09
:10759000C8D105F104084046FDF71CFDDFF858C1CD
:1075A000534A58B91420EF6A78435CF800302BB97D
:1075B00001211368B94023EA01031360EB6C142026
:1075C000C3F10401EB62A9610125116805FA03F713
:1075D0000F4300FB03C041461760FDF759FDA2E7CA
:1075E0000021A06803F09EF9A368226C134462682E
:1075F000A360934224BF2368A36058E0002D9FD16D
:10760000FDF786FC012004B0BDE8F081019810B9B7
:10761000FDF77EFCF7E719B9336802933B680393E3
:10762000FDF776FC334A136801331360FDF784FCE1
:1076300094F84430FF2B04BF002384F8443094F8BE
:107640004530FF2B04BF002384F84530FDF760FC74
:1076500001A902A8FDF78CFC00283AD1FDF76CFCCB
:10766000A26BE36B9A4224D1FDF752FC1F4BDDF86D
:107670000480196804F110001831FDF7BAFC404687
:10768000FDF7CEFC2046FDF793FDFDF765FEC0B18A
:107690000121FDF751FCA26BE36B9A42B6D2226C3A
:1076A000A66B002A9CD12368002B3FF439AF00253C
:1076B0003BE7FDF72DFC2046FDF77AFDFDF74CFE7C
:1076C000E6E74FF080532B60BFF34F8FBFF36F8F10
:1076D000DEE72046FDF76CFDFDF73EFE002092E759
:1076E000E81400200415002004ED00E0041400203C
:1076F000B4140020AC140020101400202DE9FF4722
:1077000032230446019340B94FF0500383F31188AC
:10771000BFF36F8FBFF34F8FFEE7026C42B14FF0A4
:10772000500383F31188BFF36F8FBFF34F8FFEE7D2
:10773000FDF77CFB50B9019B4BB14FF0500383F335
:107740001188BFF36F8FBFF34F8FFEE71046DFF84E
:10775000DC81704F93E0019B1BB9FDF7D9FB002042
:10776000C2E028B96C4B1B6802936C4B1B680393F7
:10777000FDF7CEFB6A4A136801331360FDF7DCFBAB
:1077800094F84430FF2B04BF002384F8443094F86D
:107790004530FF2B04BF002384F84530FDF7B8FBCC
:1077A00001A902A8FDF7E4FB002840F0A480FDF742
:1077B000C3FBA36B002B5AD1FDF7AAFB2368594EDC
:1077C000002B3BD1FDF7B8FB6568002D34D0326843
:1077D000EB6AD26A93422FD24FF01409AA6909FBCF
:1077E0000373002AA1BF3268D26AC2F10402AA61FF
:1077F0006A699A427BD105F1040A5046FDF7EAFB1B
:10780000494A58B9E86A09FB00F957F809302BB919
:1078100001211368814023EA010313603368116872
:10782000D86A012383400B4313601423E862514656
:1078300003FB0070FDF72CFCFDF76AFB3168019D2E
:10784000183104F12400FDF7D4FB2846FDF7E8FBCE
:107850002046FDF7ADFCFDF77FFD78B94FF0805372
:10786000C8F80030BFF34F8FBFF36F8F06E0FDF70E
:107870004FFB2046FDF79CFCFDF76EFD0120FDF758
:107880005BFBA56B002D3FF466AF226C6AB1E36829
:10789000616813448B42E36028BF23684FF0000007
:1078A00028BFE360E16803F03DF82368013DA5636C
:1078B00043B91C4B1A681AB119680A6D01320A657E
:1078C0001B686360236963B104F11000FDF7ECFBF2
:1078D00038B14FF08052154B1A60BFF34F8FBFF392
:1078E0006F8FFDF715FB012004B0BDE8F08733680A
:1078F000DB6AEB62A0E72046FDF75AFCFDF72CFDA2
:10790000FDF71AFBA36B002B3FF427AFFDF700FB3D
:10791000B4E700BF10140020E81400200415002074
:10792000AC14002004140020B414002004ED00E086
:107930002DE9F341184C054620680E461746984637
:1079400068B941F28833CDE90083144813460068D2
:107950000A462946FFF772FA02B0BDE8F081FFF748
:10796000CDFE0128F8D14FF4FA73CDE900830B481E
:107970003B46324629460068FFF760FA28B1256881
:10798000FEF744FA2846FFF79DFD206802B0BDE8E7
:10799000F041FFF797BD00BFA8100020F4100020B1
:1079A000F7B5164C054620680E46174658B941F201
:1079B000883313480093006813460A462946FFF7A8
:1079C0007BF903B0F0BDFFF799FE0128F9D14FF420
:1079D000FA730B48009332463B4629460068FFF78E
:1079E0006BF928B12568FEF711FA2846FFF76AFD02
:1079F000206803B0BDE8F040FFF764BDA810002088
:107A0000F4100020F0B5A14D064628680F4685B059
:107A1000002840F0BB809E4B1C689E4B1D6894F86C
:107A20003D30202B40F08B801923012220469A49BB
:107A30000095FDF775FF002840F0818094F83C30F8
:107A4000012B7CD0012384F83C3023681A68D207CC
:107A50005EBF1A6842F001021A601A6822F40062DE
:107A60001A60212384F83D30102384F83E3000232F
:107A70002364A3F580336785E362638D66622385A3
:107A8000E36A042B04D0012B02D013F5803F05D10B
:107A90002268136843F48073136002E0236B122B97
:107AA000F6D041F2883300224FF0011120460095B4
:107AB000FDF736FF68BB22692368B2F5804F1DD100
:107AC000782220461A6175492B4641F28832FDF72B
:107AD000F9FEE8B9236802905A6902929B69029301
:107AE000029B238DE3B921680A6842F400720A60A0
:107AF000202284F83D2084F83E300CE0F02220461D
:107B00001A6167492B4641F28832FDF7DBFE28B146
:107B1000236C236C002384F83C3010E02368CFE70B
:107B20002A4641F288312046FDF7A0FE48B1236C79
:107B3000042B04D12268136843F40073136005B06A
:107B4000F0BD616A20684B1C63620B780361638D32
:107B5000228D013B9BB26385531E9BB223854669F0
:107B600076070AD54BB18B1C63624B78023A0361EE
:107B7000638D2285013B9BB263852A4641F28831A1
:107B80002046FDF747FE0028ABD0D0E7FFF7B6FD53
:107B90000128D4D13E4B1C680023039394F83D3058
:107BA000202B12D146F2A8123E4B1B68B3FBF2F217
:107BB000192353430393039B5A1E03926BB920224C
:107BC000236384F83C3084F83D20FEF71FF92868D1
:107BD00005B0BDE8F040FFF775BC226893699907CE
:107BE000E9D494F83C30012BEFD0012384F83C30E9
:107BF00013680025DB0758BF13684FF078015CBF9E
:107C000043F001031360136823F40063136021231E
:107C100084F83D30102384F83E30234B256467857B
:107C2000E362638D66629BB223856164F3B1606B2E
:107C30001E49103281621E494563C0E90B5131462D
:107C4000FEF7BAFA23681A6842F480621A601A686A
:107C500042F480721A6084F83C505A6842F44072D0
:107C60005A605A6842F400625A6068E7116841F449
:107C700080611160116841F48071116084F83C30BA
:107C8000536843F4E063536059E700BFA810002035
:107C9000F4100020A01400200200100002000100D7
:107CA00008000100340000200000FFFFDB5900083D
:107CB000B359000838B5114D04462A78824218D0CD
:107CC0000F4BB8B1C822DA72A12232210C48DA7403
:107CD000FFF798FE002C14BF00222022094B2C70C5
:107CE0005A7114BF5F227F22DA7114BFC822C022EA
:107CF0005A7238BDC022DA72A022E6E7A010002036
:107D000000000020BC0F00200E4B99799A790131B8
:107D100061F3010203219A719A7902F00302B2FB26
:107D2000F1F101EB4101521A997962F30101997164
:107D3000987910F0030002D0012800D07047FFF7B7
:107D4000B9BF00BF7C140020D1210148FFF75ABE03
:107D5000BC0F00202DE9F84F00242646A046504DC8
:107D6000504B2F68DFF858B11C604F4BABF80080C8
:107D7000A3F80080FFF79EFB0020FCF763FBFCF7F5
:107D8000B3FC70B108282F6809D80138474B072881
:107D900007D8DFE800F06368065B0606064E102889
:107DA0007BD0DFF808A1C4F11E039AF80920092B43
:107DB000D8BF1424002A59D040F25231BAF800201A
:107DC00092B28A4288BFAAF80010BAF8002092B294
:107DD000772A02D87822AAF800202A68D21BC82A5B
:107DE0005BD8334A92F80090B9F1000F4FD0314878
:107DF000FCF7D6FB3048FCF7D3FBBAF800000122B1
:107E0000032180B2FCF7D5FB9AF80930002B40D053
:107E10000020FCF767FB2848FCF7C2FBB9F1000F14
:107E200039D02648FCF7BCFBFFF78EFFFDF728FB97
:107E30009BE72968A21B0A441E2AB2D91A880A3A6B
:107E400092B21A8003342E68E4B2AAE72968A21B12
:107E50000A441E2AA5D91A880A32F1E71A880A327A
:107E600092B21A809DE71A880A3AF9E7BAF8002018
:107E700092B2B2F5E17F84BF4FF4E172AAF800201C
:107E8000BAF8002092B2312AA7D83222A3E70B48D1
:107E9000AEE70120BDE70748C4E7BDE8F88F00BFA3
:107EA0000415002084110020A21000207C14002062
:107EB000A0100020D3A90008D3B00008D5A900085D
:107EC000A4100020F8B52B4D0021A88980B2FEF740
:107ED0003BFD294B1B68962B48D96A7902F0FF03BA
:107EE000002A34D003EB43134233DBB283424FF01A
:107EF00000043DD9FDF7C4FAFFF7DCFA2B7A1F4FD7
:107F00001F4EC3F3C0001B073C80348021D50120E5
:107F1000FCF798FA1B48FCF743FB08231A48338008
:107F20003C80FCF73DFBFEF7BDFD1848FCF738FB35
:107F3000FFF70AFF0022164B1A60FCF7D5FB044638
:107F40005CB1FCF7D1FB0446FDF79AFAF8E75A2337
:107F5000CCE7FCF777FA0F48E8E7FCF7C5FB0446E7
:107F6000FDF78EFA002CF8D00120F8BD0020FCE7C8
:107F70002046FAE77C14002004150020A2100020FF
:107F8000A4100020D7A90008E8A90008F3A9000858
:107F900084110020F5A900082DE9F84F4F4D504EEF
:107FA000FCF7A2FB002840F095802B6832689B1AF2
:107FB000632B40F290804B4A2B6812689B1A632B0C
:107FC00040F28980FFF77EFF00285CD1464C474F86
:107FD000637A6288002B58D093B2228892B293427F
:107FE00028BF13461F2B81BF092003EB8303A03B4F
:107FF000B3FBF0F03860637A03F0FF00002B4CD045
:10800000FEF780FD4FF000091FFA80F8FFF752FAE3
:10801000374BDFF8FCB0A3F80090227AABF8009061
:108020001307C2F3C00A3DD50120FCF70BFA314813
:10803000FCF7B6FA2E4B3048A3F800900823ABF8B3
:108040000030FCF7ADFA012203214046FCF7B1FAFB
:10805000637A2BB32948FCF7A3FA2948FCF7A0FA66
:10806000FEF720FD2748FCF79BFAE3796BB33168F4
:1080700059B341F270732A68E079521A43439A4225
:1080800023D900233B60012025E0238892B29BB2D4
:108090009A4294BF3A603B60ADE7FEF76FFDB1E7EF
:1080A0001948D8E75046FCF7CDF91848FCF778FA9C
:1080B000012203214046FCF77CFA637A1BB150464B
:1080C000FCF710FAD1E70120FAE7FFF73DFEFDF7D4
:1080D000D7F965E70020BDE8F88F00BF0415002040
:1080E000D8130020D41300207C1400208411002019
:1080F000A2100020FEA900080DAA0008BCA90008D3
:10810000D3B0000813AA0008D1A9000815AA0008D6
:10811000A41000202DE9F047934C2379052B89BF4B
:1081200025794FF47A756B1F41F2707598BF2379EA
:108130005D4390B900268D4FDFF86882FCF7D4FAD2
:10814000102815D8DFE800F013999914931414142B
:1081500011141414141414141100FFF71DFF002837
:10816000E8D0834B1A68834B1A60BDE8F08700267D
:108170004FF00009A7F80090A8F80090FFF79AF9CF
:108180004846FCF75FF9237ADFF81C9213F0080FDA
:1081900000F08C804FF00A0A0120FCF753F9764872
:1081A000FCF7FEF9D9F800000122B0FBFAF0022139
:1081B00080B2FCF7FEF97148FCF7F2F9D9F800300B
:1081C0000122B3FBFAF00AFB1030114680B2FCF733
:1081D000F0F96B48FCF7E4F9A37913F03C0F20D0D9
:1081E0002379F3B16748FCF7DBF96149614B664AD3
:1081F00008681B681268281A9A422CBF8018C01899
:1082000042F2AC63984246DD41F2707390FBF3F0AA
:10821000013080B201220221FCF7CBF95B48FCF768
:10822000BFF900233B8008235948A8F80030FCF729
:10823000B7F90120FEF7C2FC5248FCF7B1F9FEF78E
:1082400031FC5448FCF7ACF9FFF77EFD524A637AE3
:10825000002E6ED0002B69D0E3899BB21F2B57D91B
:10826000092103EB8303A03BB3FBF1F351E0237A35
:1082700013F0010318BF1E467AE7B4F80090FFF729
:1082800069FD23881FFA89F99BB24B453FF470AF13
:10829000FEF7DEFA6CE7642390FBF3F0013080B266
:1082A00001220221FCF785F93C48B8E73C4B1978DC
:1082B000B9B1FEF7D7FB3348FCF772F90120FEF79E
:1082C0007DFC56B10220FCF70DF90021D9F8000021
:1082D000FEF776FBFCF722F9B6E72A48FCF760F9CF
:1082E000F3E7D9F80000FEF76BFBFCF717F95EB176
:1082F0000220FCF7F7F80120FEF760FC2148FCF7AC
:108300004FF9FEF7AFFB9FE71E48FCF749F9F2E78C
:1083100000231360FFF7D6FD00287FF422AFA37976
:1083200013F03C0F0AD1FDF7ABF807E7E3899BB2E6
:10833000EFE70BB1238890E72388F8E72379002B38
:10834000F1D00B4A1049136809685B1AAB42EAD9AD
:108350001368084A12689B1AAB42E4D9FFF71CFE67
:108360000028E0D001E700BF7C140020A21000200C
:1083700004150020D413002019AA000886AF0008B5
:10838000C8A90008D3B00008D8130020CEA900085F
:108390000DAA000813AA000884110020C0A9000833
:1083A000A0100020A4100020B81400202DE9F041F6
:1083B0000020FCF747F84FF00005FFF77BF82C4E44
:1083C0002C4F2D4C0021A0894FF00A0880B2358037
:1083D0003D80FEF7B9FAB0FBF8F00122022180B22D
:1083E000FCF7E7F82548FCF7DBF8A089002180B20C
:1083F000FEF7AAFAB0FBF8F303FB180000220121F4
:1084000080B2FCF7D6F81E48FCF7CAF8FCF76CF906
:10841000082809D890B1013807280FD8DFE800F004
:108420000A1C0E060E0E0E06102807D1BDE8F041FC
:10843000FEF70EBAA38901339BB2A381FFF784FC38
:108440000420FCF7FFFFA3899BB2B3F5B47F06D2EB
:108450004FF4B473A381B4E7A389013BECE7A3898C
:108460009BB2B3F5027FACD94FF40273F2E700BFC1
:10847000A2100020A41000207C14002086AF000869
:1084800013AA000800242DE98048694E91B001200C
:10849000FFF710FC1920FCF7D5FFB079002500F09C
:1084A0000100FFF707FC634B214610220CA81C605B
:1084B00002F046FA2146102208A802F041FA1022E2
:1084C00021460DEB020002F03BFAB379A846C3F354
:1084D0008303092B88BF09222F464FF00304A946C6
:1084E00082BFB37962F38503B371C82340F6E442D7
:1084F00096F806A0CAF3830A03FB1A2301934E4B96
:1085000093F800B0BBF1020F6DD10623A8213220F1
:1085100002AAFFF70DFA0123B521322002AABDF904
:108520000850BDF90A80BDF90C70FFF701FA9DF8FB
:108530000840A410013CE4B2B37903F00303022B1A
:1085400006D1032C04D0B4FA84F04009FFF7B2FB43
:10855000002010AB03EB490323F8105C23F8208CB8
:1085600023F8307C02460146034609F1010909F06F
:1085700007090DF1300A0DF1200E0DF1100C3AF93A
:1085800002BB01305B443EF902BBC0B259443CF926
:1085900002BB08285A44F2D1002BB8BF0733C5EB01
:1085A000E303002BB8BF5B420029B8BF0731C8EB1B
:1085B000E1010029B8BF4942002AB8BF0732C7EB22
:1085C000E202002A1944B8BF5242019B0A44934276
:1085D000BEBF1A4B174A1B684FF00A00B8BF1360A2
:1085E000FCF730FF81E7BBF1010FA5D10623594607
:1085F0003A2002AAFFF79CF95B4610213A2002AA12
:10860000BDF80850BDF80A80BDF80C70FFF790F96E
:108610009DF908309DF80840002BA8BF0324EDBA4F
:1086200098FAB8F8FFBAB8BFC4F3410484E700BFB2
:108630007C140020D8130020EC0800200415002032
:108640002DE9F04F00264FF0FF334FF00108B146FF
:10865000B3463446354685B00290039300960C2706
:108660006F43029B03EB070ADAF80820002A00F0A8
:10867000BD80BBF1000F40F0B9805846FBF7E2FE29
:108680005C495D485D4B0A680068A3F800B0121AA7
:108690005B4BB2F5967FA3F800B038D3029BD85954
:1086A000002834D0B9F1000F01D1D1F80090FBF7C8
:1086B0004FFD00EB400082004E4952480968807A25
:1086C000A1EB090110F0010F14BF01200220B1FB42
:1086D000F0F1543212B209B291FBF2F002FB101B1E
:1086E0000FFA8BF30193019A039B934219D0FEF783
:1086F000E1FE424BCBF160021A800022404B4FF06A
:1087000001081A80029BD859FBF74AFF09E0FEF7DF
:10871000D1FEDAF8082090474FF0FF334FF0010800
:108720000193FBF7E1FF864218BF00240828834627
:10873000304E0AD8002836D0411E072933D8DFE84A
:1087400001F02B34323A3232324A10280ABF012764
:1087500000274FF00009C4F11E010929D8BF1424D5
:10876000B8F1000F04D0FFF7EFFA0420FCF76AFE1F
:10877000214831680068019B091A47F23050814254
:108780005E4688BF4FF000094FF0000894BFBB461B
:108790004FF0010B039362E7B9F1000F18D1DAF83B
:1087A000041009B388470027D5E7B9F1000F0FD1AE
:1087B0000135EDB2F7E73168009BC91A21441E2943
:1087C000F1D9DAF804309847336803340093E4B2FF
:1087D0004FF00009E7E73168009BC91A21441E29C0
:1087E000E1D90135EDB2EFE70127B4E705B0BDE807
:1087F000F08F00BF04150020D4130020A210002029
:10880000A41000207C1400202DE9FF484823059384
:10881000059B482B08D04FF0500383F31188BFF31A
:108820006F8FBFF34F8FFEE7002101239C489D4EC1
:10883000C0E90F310060FCF77FFBD0E90F346343E0
:1088400002688163D5181B1B1344C360FF23826039
:108850004FF0FF3280F8443080F8453000F11803C3
:10886000C0E906234361036200F12C03C0E90A3228
:1088700001614162C0E90C334560FCF749FB8A4C59
:108880008A4B8B4F1860FEF71DFEFBF7E9FEA079BF
:10889000DFF8548200F00100FFF70CFA3568DFF8CA
:1088A0004C9205F5C87533689D423BD9814B1B78C6
:1088B000552B35D13B78AA2B32D198F800300D2BAF
:1088C0002ED199F80030F02B2AD17B4BDFF820E233
:1088D0001A680023DFF81CC2511C13F80E00D05494
:1088E00013F80C00C8540233602BF6D1734BDFF839
:1088F00008E21A680023DFF804C2511C13F80E00C6
:10890000D05413F80C00C8540233602BF6D1FFF793
:108910001BFAFBF7E9FE00B13568FCF7B1FDC2E7D1
:108920003568F6E7664B674F1B78DFF8D4817BB17B
:108930000120FBF787FD002363483B80A8F8003047
:10894000FBF72EFEFFF700FA4FF47A70FCF79CFD60
:10895000A3799B090DD0A3799B09012B02D100209B
:10896000FFF7D8FBA3799B09022B02D10120FFF767
:10897000D1FB4FF0000A5546CDF808A0FBF7B4FE36
:10898000814610B900230293C2E0AF234F4A002072
:108990005370FBF757FD029B002B40F0B98009F1A3
:1089A000FF39B9F1070F00F2B380DFE819F0F900E1
:1089B000FE00B100AD00B100B100B10008004FF001
:1089C0000009DFF840B1FEF775FD01203D80A8F8F1
:1089D0000050FBF737FD5846FBF7E2FD0823A8F8E7
:1089E00000303B4B3D8053F82900FBF7D9FD09F1DE
:1089F000FF33092B2DD8DFE803F0050F1113181BE7
:108A000042464B4E334B1868FCF732FA01220521DF
:108A100080B2FBF7CEFD1CE02F4BF4E72F4BF2E7C3
:108A200030686423B0FBF3F0F0E72D4B1868F8E7EB
:108A3000238A9BB202934FF000032382FBF710FEC0
:108A4000FBF7A8FC0122062180B2FBF7B2FD029BD6
:108A50002382FFF779F9FBF747FE022892D001281D
:108A60000AD10B2209F101095FFA89F9B9FBF2F386
:108A700002FB13995FFA89F9FCF702FDA3E70120D5
:108A8000FEF77CF8C2E7FEF72DF801220321C0E7CC
:108A9000FEF708F8DDE70122124B11461878B8E717
:108AA000AC100020041500207C140020A810002029
:108AB00001F8000800F80008981000209C10002021
:108AC00078140020A210002026AA0008BC0F002065
:108AD000F4B0000888060020E80800204C0B0020B5
:108AE000D8130020EC08002002F8000803F8000862
:108AF00005F8000804F8000865F8000864F80008A4
:108B0000A41000203BAA0008FFF724F9FDF7A0FEFF
:108B1000A089644B002180B21D60FDF715FF002085
:108B2000FEF72CF8AF23604A1FFA80F9B9F1310F34
:108B3000537014D8A37913F03C0F10D05B4A3368FC
:108B400012689B1A41F27072934208D958493368EF
:108B500009685B1A934282BFAE23534A5370FEF7F3
:108B6000A9FC3D80A8F80050237A5A07C3F380017E
:108B700031D50120FBF766FCB9F5EB7F1BD94D48D9
:108B8000FBF70EFD08234C48A8F800303D80FBF7AA
:108B900007FDFDF787FFFFF7D7F8FCF771FCEDE65F
:108BA0000020FFF7B7FA0123EDE64448FFF748FD40
:108BB000FDF74EFEF7E74248FBF7F2FC0020FDF719
:108BC000FDFF4048FBF7ECFC20880122032180B226
:108BD000FBF7EFFCD6E708460391FBF733FC3A4B73
:108BE00093F800B0BBF1000F3ED0384B54220093F5
:108BF0000C2010230399FBF7E3FBFDF733FFB9F1DA
:108C0000370F05D8B9F12C0F49D9BAF1000FC2D0EE
:108C10002F4B1B68BBF1000F31D003F136025F33DD
:108C200002F8015F9A42FBD12A4B1B6803F136021E
:108C30005F3302F8015F9342FBD138233B80A8F8F1
:108C40000050237AC3F3400A9B0707D519223168E5
:108C5000B1FBF2F302FB13130F2B9CD90020FDF79D
:108C6000ADFF4FF0010A96E71B4B54220093594683
:108C700010235846FBF7A4FB54233B80BDE75A1E44
:108C8000283302F8015F9342FBD1124B1B685A1E36
:108C9000283302F8015F9A42FBD13D80CFE74FF0C5
:108CA000000A78E784110020BC0F0020D8130020B0
:108CB000D413002041AA0008E8A9000844010020BC
:108CC0000DAA000852AA0008A0100020DABF000870
:108CD000981000209C100020B4C000080148FFF745
:108CE000AFBC00BF380000200148FFF7A9BC00BF9F
:108CF000C80000200148FFF7A3BC00BF040100200A
:108D00000148FFF79DBC00BF980000202DE9F74FF8
:108D10008146FBF71DFA244E00EB400033688400C7
:108D200000200093FBF78EFB204B002501224FF023
:108D3000FF3198461E4F5434A4B23D801D803368E5
:108D400000981B1A1B48807A10F0010F14BF0120F5
:108D50000220B3FBF0F31BB293FBF4F004FB103BD7
:108D60000FFA8BFA51450AD0FEF7A4FBCBF1600352
:108D700048463B80A8F80050FBF712FC0122019204
:108D8000FBF7B2FC019A28B1431E5842584103B088
:108D9000BDE8F08F22B1FEF7D7FF0420FCF752FBAD
:108DA00051460022CBE700BF04150020A41000208C
:108DB000A21000207C1400202DE9F74F2B48FFF76C
:108DC000A5FF00284FD00023294D2A4F2A4EDFF857
:108DD000AC802B822C8A4FF00009A4B264BBA14660
:108DE000A346FBF73DFC4FF0000A8144FEF762FB0F
:108DF0004046A7F800B0A6F800B0FBF7D1FBC4F3DB
:108E000085035FFA8AF29A42019306D24046FBF745
:108E1000C7FB0AF1010A019BF3E7FEF795FF013456
:108E20000A20FCF70FFB102CDBD1C9F30F10FBF766
:108E3000B1FA80B22882CDE7FEF73CFB1020A7F8FC
:108E40000090A6F80090FBF74DFB288A0122042130
:108E500080B2FBF7AEFBFEF777FF782003B0BDE8EA
:108E6000F04FFCF7EFBA03B0BDE8F08F58AA000846
:108E70007C140020A2100020A410002086AF00085F
:108E800008B50C48FFF742FF98B1FEF7C7FA00207B
:108E9000FBF7D8FA0023084A08481380084A1380D1
:108EA000FBF77EFBFEF750FFBDE80840C820FCF74B
:108EB000EBBA08BDA9AA0008A2100020E4AA000885
:108EC000A41000202DE980484FF6FF07454A464D83
:108ED0001368464E43F010031360EA68444C3A406E
:108EE0003243A9B0EA60FCF75BFBA269002142F0C3
:108EF0000102A261A2696FF00B0002F0010204926C
:108F0000049BEB68DFF8F8803B403343EB60FBF7F2
:108F10004DF900216FF00A00FBF748F900216FF0CE
:108F20000900FBF743F900216FF00400FBF73EF95D
:108F300000216FF00300FBF739F90F216FF00100FA
:108F4000FBF734F90F214FF0FF30FBF72FF963687F
:108F500013F00C0F07D0636803F00C03082B51D1FA
:108F60006368DD034ED423680122236823F0F803ED
:108F700043F0800323601F4B1A60D8F80020636A17
:108F8000990740F184834FF4FA521B4B1B68B3FBE3
:108F9000F2F3099300BF099A531E0993002AF9D1ED
:108FA000636803F00C03082B39D0144B1A601A467F
:108FB000D8F8001023689B0100F17083636823F4E4
:108FC000741343F46013636001231360D8F8002026
:108FD00023689F0123D4D8F800309B1A022BF7D9BD
:108FE0001DE000BF0020024000ED00E00003FA0594
:108FF00000100240800442423400002060004242DF
:10900000A01400200122BE4B1A60D8F8002023686B
:109010009807A9D4D8F800309B1A022BF7D9B94A7F
:10902000136813F0060F00F04083636843F4E063B5
:109030006360636843F460536360636823F0F00324
:10904000636023689E0100F13D834FF47A72636888
:10905000AD4F23F4404343F4004363603B68B3FBEC
:10906000F2F3013BB3F1807F09D2F021A74A5360AC
:10907000A74B83F823100023936007231360A34AB0
:109080000F2113684FF0FF3043F004031360FBF728
:109090008DF84FF080729F4E4FF003094FF0020B96
:1090A00073689D4D23F0E06343F080637360A369B0
:1090B0009A4843F02003A361A3691CA903F020038D
:1090C0000893089BA3694FF4807A43F00403A361DB
:1090D000A36903F004030793079BA36943F0080304
:1090E000A361A36903F008030693069B2A61CDE9F7
:1090F0001C99CDF87CB0FCF7A9FC7368284643F0B6
:10910000E06343F40043736048F2FF731CA9CDE9A8
:109110001C39FCF79BFC4FF6FF7381481CA9012604
:109120001C93FCF793FC4FF4F04328461CA9CDE9AF
:109130001C36CDF87C90FCF789FC4FF000632B6166
:109140004FF080532B614FF000532B614FF0804361
:109150004FF000092B614FF410731CA9CDE91C39A5
:109160001E96FCF773FC1CA9CDE91CA6CDF87CB0BB
:10917000FCF76CFC4FF080721E202A612A61FDF71B
:109180005DFBC5F810A06369052133436361636922
:109190000B2033400593059BFBF708F84FF4006361
:1091A000604C052123601020FBF700F84FF480335A
:1091B000052123601120FAF7F9FF4FF400335A4AD2
:1091C00023605A485A4BC2E90299C2E900034FF49E
:1091D00080431046C2E90439C2E90699C2F82090DA
:1091E000FCF710FD4FF46021524C534B2046C4E96C
:1091F00002A6C4F81490E161C4F804902360C4F896
:1092000010B0FDF747F994F82410474AB142A94637
:10921000924618D0226884F824609168C90700F14A
:10922000B98246498968CB0700F1B482424B9A4221
:1092300040F0B082536823F4702343F480335360CA
:10924000002384F82430002194F824300B91012B62
:1092500011D00123226884F82430536B23F01F03BC
:1092600043F007035363136923F4600343F440039B
:10927000136184F82410002194F824300A91012B02
:1092800011D00123226884F82430536B23F47873BF
:1092900043F490735363136923F0605343F04053D6
:1092A000136184F824104FF0080E01230025CDE946
:1092B0001CE304261E934FF440531CA91D48CDE91E
:1092C000225321951F952096FCF7B2FF02231CA97B
:1092D00018481E951D93FCF7ABFF03231CA91548E6
:1092E0001D93FCF7A5FF13481CA91D96FCF7A0FFD2
:1092F0002268104D536843F08003536020E000BFA4
:1093000000004242002002403400002010E000E053
:1093100000ED00E0000001400008014000140140A1
:10932000000C014000E100E0B412002000540040B5
:10933000F824010088110020002401400028014089
:109340002846FDF709FA06460028F9D1C04DC14B61
:109350004FF0010B2B604FF48073C5E9023B4FF4D3
:109360006023EB6102236861686028462B61FDF78A
:1093700091F895F824300D965B4510D02A6885F851
:1093800024B0536B23F01F0343F0080353631369A6
:1093900023F0E06343F0C063136185F8246000218B
:1093A00095F824300C91012B11D001232A6885F8FF
:1093B0002430536B23F4787343F49073536313692D
:1093C00023F0605343F04053136185F824100123C8
:1093D00008200026CDE91C034FF0040B1E934FF428
:1093E00040531CA99A48CDE9226321961F96CDF8D7
:1093F00080B0FCF71DFF02231CA995481E961D9303
:10940000FCF716FF03231CA991481D93FCF710FFDE
:109410008F481CA9CDF874B0FCF70AFF8C4E30467B
:10942000FDF79AF983460028F9D108238A4E8B4A22
:109430006421C6E900234FF40073C6E903138023B7
:10944000B0603046B361FCF775F896F83C30012BFC
:1094500014D001210223326886F83C1086F83D3092
:10946000936823F47F4323F077039360936823F09A
:109470000703936086F83D1086F83CB04FF0000B70
:109480007548FCF787F97448FCF784F90EA972480F
:10949000CDE90EBBFAF7CEFE60205023CDE91C03C8
:1094A00004231CA96C4810262093CDF878B0FDF752
:1094B000BFFB022303226A4815A9CDE91563189260
:1094C000FCF7C4FA674964484A68674E22F4406270
:1094D00042F0E06242F400624A60FAF793FE4FF015
:1094E000804C4FF47A624FF4887EC6E900C24FF494
:1094F00000723046C6E903E2C6E905BBC6F808B00B
:10950000FCF718F896F83C20012A14D00121022318
:10951000326886F83C1086F83D30936823F47F4328
:1095200023F077039360936823F00703936086F832
:109530003D1086F83CB04FF0000B4B48FCF72AF981
:109540004948FCF727F915A94748CDE915BBFAF7B3
:1095500071FE60214FF48673CDE91C130423424849
:109560001CA92093CDF878B0FDF762FB96F83C304B
:10957000CDF874B0012B2CD0012386F83C300223A7
:1095800086F83D3033681A6A22F480521A62196AEA
:109590005A68D86920F4E64C1C984CEA002C21F457
:1095A00000501E9940EA01313048834202BF22F444
:1095B0008040219A40EA82125A60C3F81CC01D9A6A
:1095C0001A6401221962284B83F83D20002283F897
:1095D0003C2033682448DA6842F00102DA601A68F5
:1095E00042F001021A60FAF70DFE33680F21DA68C3
:1095F0001C2042F01002DA601A6A1D4E22F48052DA
:109600001A621A6A42F480521A62184A934202BFDE
:109610005A6C42F400425A641A6842F001021A601D
:10962000FAF7C4FD4FF08052124B06211A604CF637
:10963000CC406422104BB260C6E90031186045F29C
:109640005550186059609A60D8F8001016E000BFB5
:10965000B8110020002801409413002000040040AD
:10966000000C01400000014054130020002C014078
:109670000813002000E100E0003000403268D368A9
:10968000002B40F08C804AF6AA2313608DE0D8F8B6
:1096900000309B1A022B7FF672ACC0E4D8F8003081
:1096A0005B1A022B7FF686ACB9E4136823F007033C
:1096B00043F002031360136803F00703022B3FF427
:1096C000B4ACC2E441F28831636823F0030343F091
:1096D00002036360D8F80020636803F00C03082BD2
:1096E0002ED16A4A136803F00703022B2ED8636851
:1096F0001CAD43F4E0636360636823F4605363600C
:10970000634B03F110062A4618685968083303C2F0
:10971000B3421546F7D140F20123ADF854306268E8
:1097200002F00C03082B1ED05A4B62685A49C2F350
:1097300003128A5CD340594A1360FBF731FF84E47B
:10974000D8F800309B1A8B42C6D97EE4136823F008
:10975000070343F002031360136803F00703022BAF
:109760007FF473ACC3E728A9C2F383430B44D5034A
:1097700013F8301C0BD56268464BC2F340424B4392
:1097800028A90A4412F84C2CB3FBF2F3CDE7444B62
:109790004B43CAE7A36A43F02003A36250E5D8F81D
:1097A00000305B1A302B7FF66AAF95F82430012B1E
:1097B00046D001233B4885F82430FCF741FF0028C0
:1097C0005FD1AB6A384A23F4407323F0010343F4BA
:1097D0008073AB622B68934204D134494A6812F417
:1097E000702F44D1AA6A22F48012AA625A685205E4
:1097F00041BFAA6A22F4405242F48052AA62AA6A85
:1098000012F480521CBFEA6A22F00602EA620022C9
:1098100085F824206FF002021A609A6802F4602230
:10982000B2F5602F29D1204A934205D1A2F580627A
:10983000526812F4702F20D19A6842F4A0029A6004
:1098400094F82430012B75D0012384F82430164B72
:109850001C939B6803F46023B3F5602F28D0A36AA0
:1098600043F02003A362002384F8243062E0AA6A54
:1098700042F48012AA624A68B9E79A6842F48012F8
:10988000DDE7002385F82430DAE700BF002002403E
:109890000AAB000800127A00DBB000083400002098
:1098A00000093D00B81100200028014000240140BB
:1098B000AF48FCF7C5FE0028D5D11CA8FCF7C0FEB8
:1098C0000028D0D1A26AAB4B2168134043F48073C7
:1098D000A3624B68206A5D0548BFA36AA64A42BFDF
:1098E00023F4405343F48053A3620023E36284F8DB
:1098F0002430A24B4C318362A14BC362A14B036362
:109900006FF0020341F84C3C51F8443C43F480733F
:1099100041F8443C4023FCF74FFC23689A6802F46A
:109920006022B2F5602F9A680CBF42F4A00242F4A4
:1099300080129A604AF6AA2800248D48FCF7B6FEE9
:109940009148FCF7B3FE33680020C3F80080FDF7B0
:1099500059F88E4B8E4AC3F800A08E4B8E4D1C607A
:109960008E4B8F491C808F4B28461C808E4B1A6073
:109970000C228E4B1A708E4B05F111021C708D4B10
:109980001A608D4B05F171021A6010228B4B1A7010
:10999000112200F0C7FF3220FCF750FF4FF4807314
:1099A0003220C9F81030FCF749FFAF234FF47A7921
:1099B0006B70012532218248FEF724F82046FAF721
:1099C00041FD33680F22C3F800803A21CDE90059E8
:1099D0007C4803ABFDF732FADFF84882002840F0FC
:1099E00023812B218DF870001CAA3A2088F80050A2
:1099F000FDF7D6FF40232B213A201CAA8DF87030AA
:109A0000FDF7CEFF0220FCF719FF02256E4C6379AB
:109A100021793A201CAA01358DF87030FDF7C0FF7E
:109A20000D2D04F10204F2D14AF6AA2233686748E8
:109A30001A60674A674B114633F8024B834222F89B
:109A4000024BF9D14B7D1C2B00F01581FDF7E6FC94
:109A50000123614A614C13704AF6AA22336815AD9E
:109A60001A600FCC0FC594E8070085E8070015A819
:109A7000FDF7C0FC5A4B0EAD04F10C0618600FCE7A
:109A80000FC596E8070085E807000EA8FDF7B2FCB1
:109A9000544B186098F80030022B0CD81CAD2834B9
:109AA0000FCC0FC594E8070085E807001CA8FDF758
:109AB000A1FC4D4B18604D4B4FF4807201934C4B01
:109AC0004C4900934C480023FDF7AEFB002800F002
:109AD000DD804FF0500383F31188BFF36F8FBFF326
